{
  "contractName": "CrowdFunder",
  "abi": [
    {
      "constant": true,
      "inputs": [
        {
          "name": "",
          "type": "uint256"
        }
      ],
      "name": "matches",
      "outputs": [
        {
          "name": "user1",
          "type": "address"
        },
        {
          "name": "user2",
          "type": "address"
        },
        {
          "name": "isMatched",
          "type": "bool"
        }
      ],
      "payable": false,
      "stateMutability": "view",
      "type": "function"
    },
    {
      "constant": true,
      "inputs": [],
      "name": "myNum",
      "outputs": [
        {
          "name": "",
          "type": "uint256"
        }
      ],
      "payable": false,
      "stateMutability": "view",
      "type": "function"
    },
    {
      "anonymous": false,
      "inputs": [
        {
          "indexed": false,
          "name": "user1",
          "type": "address"
        },
        {
          "indexed": false,
          "name": "user2",
          "type": "address"
        },
        {
          "indexed": false,
          "name": "isMatched",
          "type": "bool"
        }
      ],
      "name": "logNewMatch",
      "type": "event"
    },
    {
      "anonymous": false,
      "inputs": [
        {
          "indexed": false,
          "name": "message",
          "type": "string"
        }
      ],
      "name": "logMessage",
      "type": "event"
    },
    {
      "constant": false,
      "inputs": [
        {
          "name": "myAddress",
          "type": "address"
        },
        {
          "name": "otherAddress",
          "type": "address"
        }
      ],
      "name": "enter",
      "outputs": [],
      "payable": true,
      "stateMutability": "payable",
      "type": "function"
    }
  ],
  "bytecode": "0x6080604052602a60015534801561001557600080fd5b50610932806100256000396000f300608060405260043610610057576000357c0100000000000000000000000000000000000000000000000000000000900463ffffffff1680634768d4ef1461005c5780635d4b837814610107578063d4da005a1461015d575b600080fd5b34801561006857600080fd5b5061008760048036038101908080359060200190929190505050610188565b604051808473ffffffffffffffffffffffffffffffffffffffff1673ffffffffffffffffffffffffffffffffffffffff1681526020018373ffffffffffffffffffffffffffffffffffffffff1673ffffffffffffffffffffffffffffffffffffffff16815260200182151515158152602001935050505060405180910390f35b61015b600480360381019080803573ffffffffffffffffffffffffffffffffffffffff169060200190929190803573ffffffffffffffffffffffffffffffffffffffff16906020019092919050505061020e565b005b34801561016957600080fd5b5061017261084d565b6040518082815260200191505060405180910390f35b60008181548110151561019757fe5b90600052602060002090600202016000915090508060000160009054906101000a900473ffffffffffffffffffffffffffffffffffffffff16908060010160009054906101000a900473ffffffffffffffffffffffffffffffffffffffff16908060010160149054906101000a900460ff16905083565b60008060008054905014151561069657600090505b6000805490508160ff161015610691576000151560008260ff1681548110151561024957fe5b906000526020600020906002020160010160149054906101000a900460ff16151514156104d2578173ffffffffffffffffffffffffffffffffffffffff1660008260ff1681548110151561029957fe5b906000526020600020906002020160000160009054906101000a900473ffffffffffffffffffffffffffffffffffffffff1673ffffffffffffffffffffffffffffffffffffffff16141561034e578260008260ff168154811015156102fa57fe5b906000526020600020906002020160010160006101000a81548173ffffffffffffffffffffffffffffffffffffffff021916908373ffffffffffffffffffffffffffffffffffffffff160217905550610429565b8173ffffffffffffffffffffffffffffffffffffffff1660008260ff1681548110151561037757fe5b906000526020600020906002020160010160009054906101000a900473ffffffffffffffffffffffffffffffffffffffff1673ffffffffffffffffffffffffffffffffffffffff161415610428578260008260ff168154811015156103d857fe5b906000526020600020906002020160000160006101000a81548173ffffffffffffffffffffffffffffffffffffffff021916908373ffffffffffffffffffffffffffffffffffffffff1602179055505b5b600160008260ff1681548110151561043d57fe5b906000526020600020906002020160010160146101000a81548160ff0219169083151502179055507f7c990052ff7017db6da0c658c0fe7be85f832d1995d7c93f87bf7fd4f8fa711d6040518080602001828103825260138152602001807f4d61746368696e67205375636365737366756c0000000000000000000000000081525060200191505060405180910390a1610684565b600080548091906001016104e69190610853565b508260006001600080549050038154811015156104ff57fe5b906000526020600020906002020160000160006101000a81548173ffffffffffffffffffffffffffffffffffffffff021916908373ffffffffffffffffffffffffffffffffffffffff16021790555060008060016000805490500381548110151561056657fe5b906000526020600020906002020160010160006101000a81548173ffffffffffffffffffffffffffffffffffffffff021916908373ffffffffffffffffffffffffffffffffffffffff1602179055506000806001600080549050038154811015156105cd57fe5b906000526020600020906002020160010160146101000a81548160ff0219169083151502179055507f7c990052ff7017db6da0c658c0fe7be85f832d1995d7c93f87bf7fd4f8fa711d6040518080602001828103825260298152602001807f506c65617365207761697420666f7220746865206f7468657220706572736f6e81526020017f20746f206d61746368000000000000000000000000000000000000000000000081525060400191505060405180910390a15b8080600101915050610223565b610848565b600080548091906001016106aa9190610853565b508260006001600080549050038154811015156106c357fe5b906000526020600020906002020160000160006101000a81548173ffffffffffffffffffffffffffffffffffffffff021916908373ffffffffffffffffffffffffffffffffffffffff16021790555060008060016000805490500381548110151561072a57fe5b906000526020600020906002020160010160006101000a81548173ffffffffffffffffffffffffffffffffffffffff021916908373ffffffffffffffffffffffffffffffffffffffff16021790555060008060016000805490500381548110151561079157fe5b906000526020600020906002020160010160146101000a81548160ff0219169083151502179055507f7c990052ff7017db6da0c658c0fe7be85f832d1995d7c93f87bf7fd4f8fa711d6040518080602001828103825260298152602001807f506c65617365207761697420666f7220746865206f7468657220706572736f6e81526020017f20746f206d61746368000000000000000000000000000000000000000000000081525060400191505060405180910390a15b505050565b60015481565b8154818355818111156108805760020281600202836000526020600020918201910161087f9190610885565b5b505050565b61090391905b808211156108ff57600080820160006101000a81549073ffffffffffffffffffffffffffffffffffffffff02191690556001820160006101000a81549073ffffffffffffffffffffffffffffffffffffffff02191690556001820160146101000a81549060ff02191690555060020161088b565b5090565b905600a165627a7a723058207107f36b48c385c2dbe06567a353b2c638706e96fb8e2721fb6c50c59a0b4a680029",
  "source": "pragma solidity ^0.4.17;\r\n\r\n\r\ncontract CrowdFunder {\r\n    struct Match {\r\n        address user1;\r\n        address user2;\r\n        bool isMatched;\r\n    }\r\n\r\n    event logNewMatch (address user1, address user2, bool isMatched);\r\n    event logMessage (string message);\r\n\r\n    Match[] public matches;\r\n\r\n    uint public myNum = 42;\r\n\r\n    function enter(address myAddress, address otherAddress) public payable {\r\n        if (matches.length != 0) {\r\n            for(var i = 0; i < matches.length; i++) {\r\n                if(matches[i].isMatched == false) {\r\n                    if(matches[i].user1 == otherAddress) {\r\n                        matches[i].user2 = myAddress;\r\n                    } else if (matches[i].user2 == otherAddress) {\r\n                        matches[i].user1 = myAddress;\r\n                    }\r\n                    matches[i].isMatched = true;\r\n                    emit logMessage('Matching Successful');\r\n                } else {\r\n                    matches.length++;\r\n                    matches[matches.length-1].user1 = myAddress;\r\n                    matches[matches.length-1].user2 = 0;\r\n                    matches[matches.length-1].isMatched = false;\r\n                    emit logMessage('Please wait for the other person to match');\r\n                }\r\n            }\r\n        } else {\r\n            matches.length++;\r\n            matches[matches.length-1].user1 = myAddress;\r\n            matches[matches.length-1].user2 = 0;\r\n            matches[matches.length-1].isMatched = false;\r\n            emit logMessage('Please wait for the other person to match');\r\n        }\r\n    }\r\n}\r\n",
  "sourcePath": "C:\\Users\\Jie Shen\\Desktop\\dappathon\\15-example_contract\\contracts\\CrowdFunder.sol",
  "compiler": {
    "name": "solc",
    "version": "0.4.24+commit.e67f0147.Emscripten.clang"
  },
  "schemaVersion": "2.0.1",
  "updatedAt": "2018-08-19T00:35:50.171Z"
}